{
    "_format": "hh-sol-artifact-1",
    "contractName": "HautherionToken",
    "sourceName": "contracts/HautherionToken.sol",
    "abi": [
        {
            "inputs": [
                {
                    "internalType": "uint256",
                    "name": "cap",
                    "type": "uint256"
                },
                {
                    "internalType": "uint256",
                    "name": "reward",
                    "type": "uint256"
                }
            ],
            "stateMutability": "nonpayable",
            "type": "constructor"
        },
        {
            "anonymous": false,
            "inputs": [
                {
                    "indexed": true,
                    "internalType": "address",
                    "name": "owner",
                    "type": "address"
                },
                {
                    "indexed": true,
                    "internalType": "address",
                    "name": "spender",
                    "type": "address"
                },
                {
                    "indexed": false,
                    "internalType": "uint256",
                    "name": "value",
                    "type": "uint256"
                }
            ],
            "name": "Approval",
            "type": "event"
        },
        {
            "anonymous": false,
            "inputs": [
                {
                    "indexed": true,
                    "internalType": "address",
                    "name": "from",
                    "type": "address"
                },
                {
                    "indexed": true,
                    "internalType": "address",
                    "name": "to",
                    "type": "address"
                },
                {
                    "indexed": false,
                    "internalType": "uint256",
                    "name": "value",
                    "type": "uint256"
                }
            ],
            "name": "Transfer",
            "type": "event"
        },
        {
            "inputs": [
                {
                    "internalType": "address",
                    "name": "owner",
                    "type": "address"
                },
                {
                    "internalType": "address",
                    "name": "spender",
                    "type": "address"
                }
            ],
            "name": "allowance",
            "outputs": [
                {
                    "internalType": "uint256",
                    "name": "",
                    "type": "uint256"
                }
            ],
            "stateMutability": "view",
            "type": "function"
        },
        {
            "inputs": [
                {
                    "internalType": "address",
                    "name": "spender",
                    "type": "address"
                },
                {
                    "internalType": "uint256",
                    "name": "amount",
                    "type": "uint256"
                }
            ],
            "name": "approve",
            "outputs": [
                {
                    "internalType": "bool",
                    "name": "",
                    "type": "bool"
                }
            ],
            "stateMutability": "nonpayable",
            "type": "function"
        },
        {
            "inputs": [
                {
                    "internalType": "address",
                    "name": "account",
                    "type": "address"
                }
            ],
            "name": "balanceOf",
            "outputs": [
                {
                    "internalType": "uint256",
                    "name": "",
                    "type": "uint256"
                }
            ],
            "stateMutability": "view",
            "type": "function"
        },
        {
            "inputs": [],
            "name": "blockReward",
            "outputs": [
                {
                    "internalType": "uint256",
                    "name": "",
                    "type": "uint256"
                }
            ],
            "stateMutability": "view",
            "type": "function"
        },
        {
            "inputs": [
                {
                    "internalType": "uint256",
                    "name": "amount",
                    "type": "uint256"
                }
            ],
            "name": "burn",
            "outputs": [],
            "stateMutability": "nonpayable",
            "type": "function"
        },
        {
            "inputs": [
                {
                    "internalType": "address",
                    "name": "account",
                    "type": "address"
                },
                {
                    "internalType": "uint256",
                    "name": "amount",
                    "type": "uint256"
                }
            ],
            "name": "burnFrom",
            "outputs": [],
            "stateMutability": "nonpayable",
            "type": "function"
        },
        {
            "inputs": [],
            "name": "cap",
            "outputs": [
                {
                    "internalType": "uint256",
                    "name": "",
                    "type": "uint256"
                }
            ],
            "stateMutability": "view",
            "type": "function"
        },
        {
            "inputs": [],
            "name": "decimals",
            "outputs": [
                {
                    "internalType": "uint8",
                    "name": "",
                    "type": "uint8"
                }
            ],
            "stateMutability": "view",
            "type": "function"
        },
        {
            "inputs": [
                {
                    "internalType": "address",
                    "name": "spender",
                    "type": "address"
                },
                {
                    "internalType": "uint256",
                    "name": "subtractedValue",
                    "type": "uint256"
                }
            ],
            "name": "decreaseAllowance",
            "outputs": [
                {
                    "internalType": "bool",
                    "name": "",
                    "type": "bool"
                }
            ],
            "stateMutability": "nonpayable",
            "type": "function"
        },
        {
            "inputs": [],
            "name": "destroy",
            "outputs": [],
            "stateMutability": "nonpayable",
            "type": "function"
        },
        {
            "inputs": [],
            "name": "getBlockReward",
            "outputs": [
                {
                    "internalType": "uint256",
                    "name": "",
                    "type": "uint256"
                }
            ],
            "stateMutability": "view",
            "type": "function"
        },
        {
            "inputs": [
                {
                    "internalType": "address",
                    "name": "spender",
                    "type": "address"
                },
                {
                    "internalType": "uint256",
                    "name": "addedValue",
                    "type": "uint256"
                }
            ],
            "name": "increaseAllowance",
            "outputs": [
                {
                    "internalType": "bool",
                    "name": "",
                    "type": "bool"
                }
            ],
            "stateMutability": "nonpayable",
            "type": "function"
        },
        {
            "inputs": [],
            "name": "name",
            "outputs": [
                {
                    "internalType": "string",
                    "name": "",
                    "type": "string"
                }
            ],
            "stateMutability": "view",
            "type": "function"
        },
        {
            "inputs": [
                {
                    "internalType": "uint256",
                    "name": "reward",
                    "type": "uint256"
                }
            ],
            "name": "setBlockReward",
            "outputs": [],
            "stateMutability": "nonpayable",
            "type": "function"
        },
        {
            "inputs": [],
            "name": "symbol",
            "outputs": [
                {
                    "internalType": "string",
                    "name": "",
                    "type": "string"
                }
            ],
            "stateMutability": "view",
            "type": "function"
        },
        {
            "inputs": [],
            "name": "totalSupply",
            "outputs": [
                {
                    "internalType": "uint256",
                    "name": "",
                    "type": "uint256"
                }
            ],
            "stateMutability": "view",
            "type": "function"
        },
        {
            "inputs": [
                {
                    "internalType": "address",
                    "name": "to",
                    "type": "address"
                },
                {
                    "internalType": "uint256",
                    "name": "amount",
                    "type": "uint256"
                }
            ],
            "name": "transfer",
            "outputs": [
                {
                    "internalType": "bool",
                    "name": "",
                    "type": "bool"
                }
            ],
            "stateMutability": "nonpayable",
            "type": "function"
        },
        {
            "inputs": [
                {
                    "internalType": "address",
                    "name": "from",
                    "type": "address"
                },
                {
                    "internalType": "address",
                    "name": "to",
                    "type": "address"
                },
                {
                    "internalType": "uint256",
                    "name": "amount",
                    "type": "uint256"
                }
            ],
            "name": "transferFrom",
            "outputs": [
                {
                    "internalType": "bool",
                    "name": "",
                    "type": "bool"
                }
            ],
            "stateMutability": "nonpayable",
            "type": "function"
        }
    ],
    "bytecode": "0x60a06040523480156200001157600080fd5b50604051620015f6380380620015f68339810160408190526200003491620004a3565b620000426012600a620005dd565b6200004e9083620005f5565b604080518082018252600a8152692430baba3432b934b7b760b11b60208083019182528351808501909452600584526409082aaa8960db1b9084015281519192916200009d91600391620003fd565b508051620000b3906004906020840190620003fd565b505050600081116200010c5760405162461bcd60e51b815260206004820152601560248201527f45524332304361707065643a206361702069732030000000000000000000000060448201526064015b60405180910390fd5b6080526200013733620001226012600a620005dd565b6200013190620f4240620005f5565b62000177565b600580546001600160a01b0319163317905562000152601290565b6200015f90600a620005dd565b6200016b9082620005f5565b600655506200066e9050565b60805181620001906200020760201b620003371760201c565b6200019c919062000617565b1115620001ec5760405162461bcd60e51b815260206004820152601960248201527f45524332304361707065643a2063617020657863656564656400000000000000604482015260640162000103565b6200020382826200020d60201b620004f31760201c565b5050565b60025490565b60805181620002266200020760201b620003371760201c565b62000232919062000617565b1115620002825760405162461bcd60e51b815260206004820152601960248201527f45524332304361707065643a2063617020657863656564656400000000000000604482015260640162000103565b6200020382826200029960201b620005781760201c565b6001600160a01b038216620002f15760405162461bcd60e51b815260206004820152601f60248201527f45524332303a206d696e7420746f20746865207a65726f206164647265737300604482015260640162000103565b620002ff600083836200038c565b806002600082825462000313919062000617565b90915550506001600160a01b038216600090815260208190526040812080548392906200034290849062000617565b90915550506040518181526001600160a01b038316906000907fddf252ad1be2c89b69c2b068fc378daa952ba7f163c4a11628f55a4df523b3ef9060200160405180910390a35050565b6001600160a01b03831615801590620003ae57506001600160a01b0382164114155b8015620003ba57504115155b15620003ca57620003ca620003e7565b620003e2838383620003e260201b620006631760201c565b505050565b620003fb416006546200017760201b60201c565b565b8280546200040b9062000632565b90600052602060002090601f0160209004810192826200042f57600085556200047a565b82601f106200044a57805160ff19168380011785556200047a565b828001600101855582156200047a579182015b828111156200047a5782518255916020019190600101906200045d565b50620004889291506200048c565b5090565b5b808211156200048857600081556001016200048d565b60008060408385031215620004b757600080fd5b505080516020909101519092909150565b634e487b7160e01b600052601160045260246000fd5b600181815b808511156200051f578160001904821115620005035762000503620004c8565b808516156200051157918102915b93841c9390800290620004e3565b509250929050565b6000826200053857506001620005d7565b816200054757506000620005d7565b81600181146200056057600281146200056b576200058b565b6001915050620005d7565b60ff8411156200057f576200057f620004c8565b50506001821b620005d7565b5060208310610133831016604e8410600b8410161715620005b0575081810a620005d7565b620005bc8383620004de565b8060001904821115620005d357620005d3620004c8565b0290505b92915050565b6000620005ee60ff84168362000527565b9392505050565b6000816000190483118215151615620006125762000612620004c8565b500290565b600082198211156200062d576200062d620004c8565b500190565b600181811c908216806200064757607f821691505b6020821081036200066857634e487b7160e01b600052602260045260246000fd5b50919050565b608051610f5e62000698600039600081816101b4015281816104f50152610b7d0152610f5e6000f3fe608060405234801561001057600080fd5b50600436106101165760003560e01c806342966c68116100a257806395d89b411161007157806395d89b4114610242578063a457c2d71461024a578063a9059cbb1461025d578063dd62ed3e14610270578063f89d40861461028357600080fd5b806342966c68146101eb57806370a08231146101fe57806379cc67901461022757806383197ef01461023a57600080fd5b80631a18e707116100e95780631a18e7071461017b57806323b872dd14610190578063313ce567146101a3578063355274ea146101b257806339509351146101d857600080fd5b806306fdde031461011b578063095ea7b3146101395780630ac168a11461015c57806318160ddd14610173575b600080fd5b61012361028b565b6040516101309190610c04565b60405180910390f35b61014c610147366004610c75565b61031d565b6040519015158152602001610130565b61016560065481565b604051908152602001610130565b600254610165565b61018e610189366004610c9f565b61033d565b005b61014c61019e366004610cb8565b61038c565b60405160128152602001610130565b7f0000000000000000000000000000000000000000000000000000000000000000610165565b61014c6101e6366004610c75565b6103b0565b61018e6101f9366004610c9f565b6103d2565b61016561020c366004610cf4565b6001600160a01b031660009081526020819052604090205490565b61018e610235366004610c75565b6103df565b61018e6103f8565b610123610430565b61014c610258366004610c75565b61043f565b61014c61026b366004610c75565b6104ba565b61016561027e366004610d16565b6104c8565b600654610165565b60606003805461029a90610d49565b80601f01602080910402602001604051908101604052809291908181526020018280546102c690610d49565b80156103135780601f106102e857610100808354040283529160200191610313565b820191906000526020600020905b8154815290600101906020018083116102f657829003601f168201915b5050505050905090565b60003361032b818585610668565b60019150505b92915050565b60025490565b6005546001600160a01b031633146103705760405162461bcd60e51b815260040161036790610d83565b60405180910390fd5b61037c6012600a610ecb565b6103869082610eda565b60065550565b60003361039a85828561078c565b6103a5858585610806565b506001949350505050565b60003361032b8185856103c383836104c8565b6103cd9190610ef9565b610668565b6103dc33826109df565b50565b6103ea82338361078c565b6103f482826109df565b5050565b6005546001600160a01b031633146104225760405162461bcd60e51b815260040161036790610d83565b6005546001600160a01b0316ff5b60606004805461029a90610d49565b6000338161044d82866104c8565b9050838110156104ad5760405162461bcd60e51b815260206004820152602560248201527f45524332303a2064656372656173656420616c6c6f77616e63652062656c6f77604482015264207a65726f60d81b6064820152608401610367565b6103a58286868403610668565b60003361032b818585610806565b6001600160a01b03918216600090815260016020908152604080832093909416825291909152205490565b7f00000000000000000000000000000000000000000000000000000000000000008161051e60025490565b6105289190610ef9565b11156105725760405162461bcd60e51b8152602060048201526019602482015278115490cc8c10d85c1c19590e8818d85c08195e18d959591959603a1b6044820152606401610367565b6103f482825b6001600160a01b0382166105ce5760405162461bcd60e51b815260206004820152601f60248201527f45524332303a206d696e7420746f20746865207a65726f2061646472657373006044820152606401610367565b6105da60008383610b39565b80600260008282546105ec9190610ef9565b90915550506001600160a01b03821660009081526020819052604081208054839290610619908490610ef9565b90915550506040518181526001600160a01b038316906000907fddf252ad1be2c89b69c2b068fc378daa952ba7f163c4a11628f55a4df523b3ef9060200160405180910390a35050565b505050565b6001600160a01b0383166106ca5760405162461bcd60e51b8152602060048201526024808201527f45524332303a20617070726f76652066726f6d20746865207a65726f206164646044820152637265737360e01b6064820152608401610367565b6001600160a01b03821661072b5760405162461bcd60e51b815260206004820152602260248201527f45524332303a20617070726f766520746f20746865207a65726f206164647265604482015261737360f01b6064820152608401610367565b6001600160a01b0383811660008181526001602090815260408083209487168084529482529182902085905590518481527f8c5be1e5ebec7d5bd14f71427d1e84f3dd0314c0f7b2291e5b200ac8c7c3b925910160405180910390a3505050565b600061079884846104c8565b9050600019811461080057818110156107f35760405162461bcd60e51b815260206004820152601d60248201527f45524332303a20696e73756666696369656e7420616c6c6f77616e63650000006044820152606401610367565b6108008484848403610668565b50505050565b6001600160a01b03831661086a5760405162461bcd60e51b815260206004820152602560248201527f45524332303a207472616e736665722066726f6d20746865207a65726f206164604482015264647265737360d81b6064820152608401610367565b6001600160a01b0382166108cc5760405162461bcd60e51b815260206004820152602360248201527f45524332303a207472616e7366657220746f20746865207a65726f206164647260448201526265737360e81b6064820152608401610367565b6108d7838383610b39565b6001600160a01b0383166000908152602081905260409020548181101561094f5760405162461bcd60e51b815260206004820152602660248201527f45524332303a207472616e7366657220616d6f756e7420657863656564732062604482015265616c616e636560d01b6064820152608401610367565b6001600160a01b03808516600090815260208190526040808220858503905591851681529081208054849290610986908490610ef9565b92505081905550826001600160a01b0316846001600160a01b03167fddf252ad1be2c89b69c2b068fc378daa952ba7f163c4a11628f55a4df523b3ef846040516109d291815260200190565b60405180910390a3610800565b6001600160a01b038216610a3f5760405162461bcd60e51b815260206004820152602160248201527f45524332303a206275726e2066726f6d20746865207a65726f206164647265736044820152607360f81b6064820152608401610367565b610a4b82600083610b39565b6001600160a01b03821660009081526020819052604090205481811015610abf5760405162461bcd60e51b815260206004820152602260248201527f45524332303a206275726e20616d6f756e7420657863656564732062616c616e604482015261636560f01b6064820152608401610367565b6001600160a01b0383166000908152602081905260408120838303905560028054849290610aee908490610f11565b90915550506040518281526000906001600160a01b038516907fddf252ad1be2c89b69c2b068fc378daa952ba7f163c4a11628f55a4df523b3ef9060200160405180910390a3505050565b6001600160a01b03831615801590610b5a57506001600160a01b0382164114155b8015610b6557504115155b1561066357610663610b7941600654610b7b565b565b7f000000000000000000000000000000000000000000000000000000000000000081610ba660025490565b610bb09190610ef9565b1115610bfa5760405162461bcd60e51b8152602060048201526019602482015278115490cc8c10d85c1c19590e8818d85c08195e18d959591959603a1b6044820152606401610367565b6103f482826104f3565b600060208083528351808285015260005b81811015610c3157858101830151858201604001528201610c15565b81811115610c43576000604083870101525b50601f01601f1916929092016040019392505050565b80356001600160a01b0381168114610c7057600080fd5b919050565b60008060408385031215610c8857600080fd5b610c9183610c59565b946020939093013593505050565b600060208284031215610cb157600080fd5b5035919050565b600080600060608486031215610ccd57600080fd5b610cd684610c59565b9250610ce460208501610c59565b9150604084013590509250925092565b600060208284031215610d0657600080fd5b610d0f82610c59565b9392505050565b60008060408385031215610d2957600080fd5b610d3283610c59565b9150610d4060208401610c59565b90509250929050565b600181811c90821680610d5d57607f821691505b602082108103610d7d57634e487b7160e01b600052602260045260246000fd5b50919050565b6020808252602e908201527f4f6e6c792074686520636f6e7472616374206f776e65722063616e2063616c6c60408201526d103a3434b990333ab731ba34b7b760911b606082015260800190565b634e487b7160e01b600052601160045260246000fd5b600181815b80851115610e22578160001904821115610e0857610e08610dd1565b80851615610e1557918102915b93841c9390800290610dec565b509250929050565b600082610e3957506001610331565b81610e4657506000610331565b8160018114610e5c5760028114610e6657610e82565b6001915050610331565b60ff841115610e7757610e77610dd1565b50506001821b610331565b5060208310610133831016604e8410600b8410161715610ea5575081810a610331565b610eaf8383610de7565b8060001904821115610ec357610ec3610dd1565b029392505050565b6000610d0f60ff841683610e2a565b6000816000190483118215151615610ef457610ef4610dd1565b500290565b60008219821115610f0c57610f0c610dd1565b500190565b600082821015610f2357610f23610dd1565b50039056fea2646970667358221220bbc88863e61e0d4cb81eff1b76d79a2909de00ab951517e6b85dbdf6f68bd66e64736f6c634300080e0033",
    "linkReferences": {},
    "deployedLinkReferences": {}
}