{
    "_format": "hh-sol-artifact-1",
    "contractName": "HautherionToken",
    "sourceName": "contracts/HautherionToken.sol",
    "abi": [
        {
            "inputs": [
                {
                    "internalType": "uint256",
                    "name": "cap",
                    "type": "uint256"
                },
                {
                    "internalType": "uint256",
                    "name": "reward",
                    "type": "uint256"
                }
            ],
            "stateMutability": "nonpayable",
            "type": "constructor"
        },
        {
            "anonymous": false,
            "inputs": [
                {
                    "indexed": true,
                    "internalType": "address",
                    "name": "owner",
                    "type": "address"
                },
                {
                    "indexed": true,
                    "internalType": "address",
                    "name": "spender",
                    "type": "address"
                },
                {
                    "indexed": false,
                    "internalType": "uint256",
                    "name": "value",
                    "type": "uint256"
                }
            ],
            "name": "Approval",
            "type": "event"
        },
        {
            "anonymous": false,
            "inputs": [
                {
                    "indexed": true,
                    "internalType": "address",
                    "name": "from",
                    "type": "address"
                },
                {
                    "indexed": true,
                    "internalType": "address",
                    "name": "to",
                    "type": "address"
                },
                {
                    "indexed": false,
                    "internalType": "uint256",
                    "name": "value",
                    "type": "uint256"
                }
            ],
            "name": "Transfer",
            "type": "event"
        },
        {
            "inputs": [
                {
                    "internalType": "address",
                    "name": "owner",
                    "type": "address"
                },
                {
                    "internalType": "address",
                    "name": "spender",
                    "type": "address"
                }
            ],
            "name": "allowance",
            "outputs": [
                {
                    "internalType": "uint256",
                    "name": "",
                    "type": "uint256"
                }
            ],
            "stateMutability": "view",
            "type": "function"
        },
        {
            "inputs": [
                {
                    "internalType": "address",
                    "name": "spender",
                    "type": "address"
                },
                {
                    "internalType": "uint256",
                    "name": "amount",
                    "type": "uint256"
                }
            ],
            "name": "approve",
            "outputs": [
                {
                    "internalType": "bool",
                    "name": "",
                    "type": "bool"
                }
            ],
            "stateMutability": "nonpayable",
            "type": "function"
        },
        {
            "inputs": [
                {
                    "internalType": "address",
                    "name": "account",
                    "type": "address"
                }
            ],
            "name": "balanceOf",
            "outputs": [
                {
                    "internalType": "uint256",
                    "name": "",
                    "type": "uint256"
                }
            ],
            "stateMutability": "view",
            "type": "function"
        },
        {
            "inputs": [],
            "name": "blockReward",
            "outputs": [
                {
                    "internalType": "uint256",
                    "name": "",
                    "type": "uint256"
                }
            ],
            "stateMutability": "view",
            "type": "function"
        },
        {
            "inputs": [
                {
                    "internalType": "uint256",
                    "name": "amount",
                    "type": "uint256"
                }
            ],
            "name": "burn",
            "outputs": [],
            "stateMutability": "nonpayable",
            "type": "function"
        },
        {
            "inputs": [
                {
                    "internalType": "address",
                    "name": "account",
                    "type": "address"
                },
                {
                    "internalType": "uint256",
                    "name": "amount",
                    "type": "uint256"
                }
            ],
            "name": "burnFrom",
            "outputs": [],
            "stateMutability": "nonpayable",
            "type": "function"
        },
        {
            "inputs": [],
            "name": "cap",
            "outputs": [
                {
                    "internalType": "uint256",
                    "name": "",
                    "type": "uint256"
                }
            ],
            "stateMutability": "view",
            "type": "function"
        },
        {
            "inputs": [],
            "name": "decimals",
            "outputs": [
                {
                    "internalType": "uint8",
                    "name": "",
                    "type": "uint8"
                }
            ],
            "stateMutability": "view",
            "type": "function"
        },
        {
            "inputs": [
                {
                    "internalType": "address",
                    "name": "spender",
                    "type": "address"
                },
                {
                    "internalType": "uint256",
                    "name": "subtractedValue",
                    "type": "uint256"
                }
            ],
            "name": "decreaseAllowance",
            "outputs": [
                {
                    "internalType": "bool",
                    "name": "",
                    "type": "bool"
                }
            ],
            "stateMutability": "nonpayable",
            "type": "function"
        },
        {
            "inputs": [],
            "name": "destroy",
            "outputs": [],
            "stateMutability": "nonpayable",
            "type": "function"
        },
        {
            "inputs": [],
            "name": "getBlockReward",
            "outputs": [
                {
                    "internalType": "uint256",
                    "name": "",
                    "type": "uint256"
                }
            ],
            "stateMutability": "view",
            "type": "function"
        },
        {
            "inputs": [
                {
                    "internalType": "address",
                    "name": "spender",
                    "type": "address"
                },
                {
                    "internalType": "uint256",
                    "name": "addedValue",
                    "type": "uint256"
                }
            ],
            "name": "increaseAllowance",
            "outputs": [
                {
                    "internalType": "bool",
                    "name": "",
                    "type": "bool"
                }
            ],
            "stateMutability": "nonpayable",
            "type": "function"
        },
        {
            "inputs": [],
            "name": "name",
            "outputs": [
                {
                    "internalType": "string",
                    "name": "",
                    "type": "string"
                }
            ],
            "stateMutability": "view",
            "type": "function"
        },
        {
            "inputs": [],
            "name": "receiveTenTokens",
            "outputs": [],
            "stateMutability": "nonpayable",
            "type": "function"
        },
        {
            "inputs": [
                {
                    "internalType": "uint256",
                    "name": "reward",
                    "type": "uint256"
                }
            ],
            "name": "setBlockReward",
            "outputs": [],
            "stateMutability": "nonpayable",
            "type": "function"
        },
        {
            "inputs": [],
            "name": "symbol",
            "outputs": [
                {
                    "internalType": "string",
                    "name": "",
                    "type": "string"
                }
            ],
            "stateMutability": "view",
            "type": "function"
        },
        {
            "inputs": [],
            "name": "totalSupply",
            "outputs": [
                {
                    "internalType": "uint256",
                    "name": "",
                    "type": "uint256"
                }
            ],
            "stateMutability": "view",
            "type": "function"
        },
        {
            "inputs": [
                {
                    "internalType": "address",
                    "name": "to",
                    "type": "address"
                },
                {
                    "internalType": "uint256",
                    "name": "amount",
                    "type": "uint256"
                }
            ],
            "name": "transfer",
            "outputs": [
                {
                    "internalType": "bool",
                    "name": "",
                    "type": "bool"
                }
            ],
            "stateMutability": "nonpayable",
            "type": "function"
        },
        {
            "inputs": [
                {
                    "internalType": "address",
                    "name": "from",
                    "type": "address"
                },
                {
                    "internalType": "address",
                    "name": "to",
                    "type": "address"
                },
                {
                    "internalType": "uint256",
                    "name": "amount",
                    "type": "uint256"
                }
            ],
            "name": "transferFrom",
            "outputs": [
                {
                    "internalType": "bool",
                    "name": "",
                    "type": "bool"
                }
            ],
            "stateMutability": "nonpayable",
            "type": "function"
        }
    ],
    "bytecode": "0x60a06040523480156200001157600080fd5b50604051620016a7380380620016a78339810160408190526200003491620004a3565b620000426012600a620005dd565b6200004e9083620005f5565b604080518082018252600a8152692430baba3432b934b7b760b11b60208083019182528351808501909452600584526409082aaa8960db1b9084015281519192916200009d91600391620003fd565b508051620000b3906004906020840190620003fd565b505050600081116200010c5760405162461bcd60e51b815260206004820152601560248201527f45524332304361707065643a206361702069732030000000000000000000000060448201526064015b60405180910390fd5b6080526200013733620001226012600a620005dd565b6200013190620f4240620005f5565b62000177565b600580546001600160a01b0319163317905562000152601290565b6200015f90600a620005dd565b6200016b9082620005f5565b600655506200066e9050565b60805181620001906200020760201b6200034a1760201c565b6200019c919062000617565b1115620001ec5760405162461bcd60e51b815260206004820152601960248201527f45524332304361707065643a2063617020657863656564656400000000000000604482015260640162000103565b6200020382826200020d60201b620005a61760201c565b5050565b60025490565b60805181620002266200020760201b6200034a1760201c565b62000232919062000617565b1115620002825760405162461bcd60e51b815260206004820152601960248201527f45524332304361707065643a2063617020657863656564656400000000000000604482015260640162000103565b6200020382826200029960201b6200062b1760201c565b6001600160a01b038216620002f15760405162461bcd60e51b815260206004820152601f60248201527f45524332303a206d696e7420746f20746865207a65726f206164647265737300604482015260640162000103565b620002ff600083836200038c565b806002600082825462000313919062000617565b90915550506001600160a01b038216600090815260208190526040812080548392906200034290849062000617565b90915550506040518181526001600160a01b038316906000907fddf252ad1be2c89b69c2b068fc378daa952ba7f163c4a11628f55a4df523b3ef9060200160405180910390a35050565b6001600160a01b03831615801590620003ae57506001600160a01b0382164114155b8015620003ba57504115155b15620003ca57620003ca620003e7565b620003e2838383620003e260201b620007161760201c565b505050565b620003fb416006546200017760201b60201c565b565b8280546200040b9062000632565b90600052602060002090601f0160209004810192826200042f57600085556200047a565b82601f106200044a57805160ff19168380011785556200047a565b828001600101855582156200047a579182015b828111156200047a5782518255916020019190600101906200045d565b50620004889291506200048c565b5090565b5b808211156200048857600081556001016200048d565b60008060408385031215620004b757600080fd5b505080516020909101519092909150565b634e487b7160e01b600052601160045260246000fd5b600181815b808511156200051f578160001904821115620005035762000503620004c8565b808516156200051157918102915b93841c9390800290620004e3565b509250929050565b6000826200053857506001620005d7565b816200054757506000620005d7565b81600181146200056057600281146200056b576200058b565b6001915050620005d7565b60ff8411156200057f576200057f620004c8565b50506001821b620005d7565b5060208310610133831016604e8410600b8410161715620005b0575081810a620005d7565b620005bc8383620004de565b8060001904821115620005d357620005d3620004c8565b0290505b92915050565b6000620005ee60ff84168362000527565b9392505050565b6000816000190483118215151615620006125762000612620004c8565b500290565b600082198211156200062d576200062d620004c8565b500190565b600181811c908216806200064757607f821691505b6020821081036200066857634e487b7160e01b600052602260045260246000fd5b50919050565b60805161100f62000698600039600081816101bf015281816105a80152610bee015261100f6000f3fe608060405234801561001057600080fd5b50600436106101215760003560e01c806342966c68116100ad5780639a1477e4116100715780639a1477e414610255578063a457c2d71461025d578063a9059cbb14610270578063dd62ed3e14610283578063f89d40861461029657600080fd5b806342966c68146101f657806370a082311461020957806379cc67901461023257806383197ef01461024557806395d89b411461024d57600080fd5b80631a18e707116100f45780631a18e7071461018657806323b872dd1461019b578063313ce567146101ae578063355274ea146101bd57806339509351146101e357600080fd5b806306fdde0314610126578063095ea7b3146101445780630ac168a11461016757806318160ddd1461017e575b600080fd5b61012e61029e565b60405161013b9190610cb5565b60405180910390f35b610157610152366004610d26565b610330565b604051901515815260200161013b565b61017060065481565b60405190815260200161013b565b600254610170565b610199610194366004610d50565b610350565b005b6101576101a9366004610d69565b61039f565b6040516012815260200161013b565b7f0000000000000000000000000000000000000000000000000000000000000000610170565b6101576101f1366004610d26565b6103c3565b610199610204366004610d50565b6103e5565b610170610217366004610da5565b6001600160a01b031660009081526020819052604090205490565b610199610240366004610d26565b6103f2565b61019961040b565b61012e610443565b610199610452565b61015761026b366004610d26565b6104f2565b61015761027e366004610d26565b61056d565b610170610291366004610dc7565b61057b565b600654610170565b6060600380546102ad90610dfa565b80601f01602080910402602001604051908101604052809291908181526020018280546102d990610dfa565b80156103265780601f106102fb57610100808354040283529160200191610326565b820191906000526020600020905b81548152906001019060200180831161030957829003601f168201915b5050505050905090565b60003361033e81858561071b565b60019150505b92915050565b60025490565b6005546001600160a01b031633146103835760405162461bcd60e51b815260040161037a90610e34565b60405180910390fd5b61038f6012600a610f7c565b6103999082610f8b565b60065550565b6000336103ad85828561083f565b6103b88585856108b9565b506001949350505050565b60003361033e8185856103d6838361057b565b6103e09190610faa565b61071b565b6103ef3382610a92565b50565b6103fd82338361083f565b6104078282610a92565b5050565b6005546001600160a01b031633146104355760405162461bcd60e51b815260040161037a90610e34565b6005546001600160a01b0316ff5b6060600480546102ad90610dfa565b3360009081526007602052604090205462093a80906104719042610fc2565b116104be5760405162461bcd60e51b815260206004820152601f60248201527f596f752063616e6e6f7420726574726965766520746f6b656e73207965742e00604482015260640161037a565b3360008181526007602052604090204290556104f0906104e06012600a610f7c565b6104eb90600a610f8b565b610bec565b565b60003381610500828661057b565b9050838110156105605760405162461bcd60e51b815260206004820152602560248201527f45524332303a2064656372656173656420616c6c6f77616e63652062656c6f77604482015264207a65726f60d81b606482015260840161037a565b6103b8828686840361071b565b60003361033e8185856108b9565b6001600160a01b03918216600090815260016020908152604080832093909416825291909152205490565b7f0000000000000000000000000000000000000000000000000000000000000000816105d160025490565b6105db9190610faa565b11156106255760405162461bcd60e51b8152602060048201526019602482015278115490cc8c10d85c1c19590e8818d85c08195e18d959591959603a1b604482015260640161037a565b61040782825b6001600160a01b0382166106815760405162461bcd60e51b815260206004820152601f60248201527f45524332303a206d696e7420746f20746865207a65726f206164647265737300604482015260640161037a565b61068d60008383610c75565b806002600082825461069f9190610faa565b90915550506001600160a01b038216600090815260208190526040812080548392906106cc908490610faa565b90915550506040518181526001600160a01b038316906000907fddf252ad1be2c89b69c2b068fc378daa952ba7f163c4a11628f55a4df523b3ef9060200160405180910390a35050565b505050565b6001600160a01b03831661077d5760405162461bcd60e51b8152602060048201526024808201527f45524332303a20617070726f76652066726f6d20746865207a65726f206164646044820152637265737360e01b606482015260840161037a565b6001600160a01b0382166107de5760405162461bcd60e51b815260206004820152602260248201527f45524332303a20617070726f766520746f20746865207a65726f206164647265604482015261737360f01b606482015260840161037a565b6001600160a01b0383811660008181526001602090815260408083209487168084529482529182902085905590518481527f8c5be1e5ebec7d5bd14f71427d1e84f3dd0314c0f7b2291e5b200ac8c7c3b925910160405180910390a3505050565b600061084b848461057b565b905060001981146108b357818110156108a65760405162461bcd60e51b815260206004820152601d60248201527f45524332303a20696e73756666696369656e7420616c6c6f77616e6365000000604482015260640161037a565b6108b3848484840361071b565b50505050565b6001600160a01b03831661091d5760405162461bcd60e51b815260206004820152602560248201527f45524332303a207472616e736665722066726f6d20746865207a65726f206164604482015264647265737360d81b606482015260840161037a565b6001600160a01b03821661097f5760405162461bcd60e51b815260206004820152602360248201527f45524332303a207472616e7366657220746f20746865207a65726f206164647260448201526265737360e81b606482015260840161037a565b61098a838383610c75565b6001600160a01b03831660009081526020819052604090205481811015610a025760405162461bcd60e51b815260206004820152602660248201527f45524332303a207472616e7366657220616d6f756e7420657863656564732062604482015265616c616e636560d01b606482015260840161037a565b6001600160a01b03808516600090815260208190526040808220858503905591851681529081208054849290610a39908490610faa565b92505081905550826001600160a01b0316846001600160a01b03167fddf252ad1be2c89b69c2b068fc378daa952ba7f163c4a11628f55a4df523b3ef84604051610a8591815260200190565b60405180910390a36108b3565b6001600160a01b038216610af25760405162461bcd60e51b815260206004820152602160248201527f45524332303a206275726e2066726f6d20746865207a65726f206164647265736044820152607360f81b606482015260840161037a565b610afe82600083610c75565b6001600160a01b03821660009081526020819052604090205481811015610b725760405162461bcd60e51b815260206004820152602260248201527f45524332303a206275726e20616d6f756e7420657863656564732062616c616e604482015261636560f01b606482015260840161037a565b6001600160a01b0383166000908152602081905260408120838303905560028054849290610ba1908490610fc2565b90915550506040518281526000906001600160a01b038516907fddf252ad1be2c89b69c2b068fc378daa952ba7f163c4a11628f55a4df523b3ef9060200160405180910390a3505050565b7f000000000000000000000000000000000000000000000000000000000000000081610c1760025490565b610c219190610faa565b1115610c6b5760405162461bcd60e51b8152602060048201526019602482015278115490cc8c10d85c1c19590e8818d85c08195e18d959591959603a1b604482015260640161037a565b61040782826105a6565b6001600160a01b03831615801590610c9657506001600160a01b0382164114155b8015610ca157504115155b15610716576107166104f041600654610bec565b600060208083528351808285015260005b81811015610ce257858101830151858201604001528201610cc6565b81811115610cf4576000604083870101525b50601f01601f1916929092016040019392505050565b80356001600160a01b0381168114610d2157600080fd5b919050565b60008060408385031215610d3957600080fd5b610d4283610d0a565b946020939093013593505050565b600060208284031215610d6257600080fd5b5035919050565b600080600060608486031215610d7e57600080fd5b610d8784610d0a565b9250610d9560208501610d0a565b9150604084013590509250925092565b600060208284031215610db757600080fd5b610dc082610d0a565b9392505050565b60008060408385031215610dda57600080fd5b610de383610d0a565b9150610df160208401610d0a565b90509250929050565b600181811c90821680610e0e57607f821691505b602082108103610e2e57634e487b7160e01b600052602260045260246000fd5b50919050565b6020808252602e908201527f4f6e6c792074686520636f6e7472616374206f776e65722063616e2063616c6c60408201526d103a3434b990333ab731ba34b7b760911b606082015260800190565b634e487b7160e01b600052601160045260246000fd5b600181815b80851115610ed3578160001904821115610eb957610eb9610e82565b80851615610ec657918102915b93841c9390800290610e9d565b509250929050565b600082610eea57506001610344565b81610ef757506000610344565b8160018114610f0d5760028114610f1757610f33565b6001915050610344565b60ff841115610f2857610f28610e82565b50506001821b610344565b5060208310610133831016604e8410600b8410161715610f56575081810a610344565b610f608383610e98565b8060001904821115610f7457610f74610e82565b029392505050565b6000610dc060ff841683610edb565b6000816000190483118215151615610fa557610fa5610e82565b500290565b60008219821115610fbd57610fbd610e82565b500190565b600082821015610fd457610fd4610e82565b50039056fea264697066735822122026a1439e9cd0454f7ccb392d105064b3be0dc31ee83729b7b10f80ad46b3fb5b64736f6c634300080e0033",
    "linkReferences": {},
    "deployedLinkReferences": {}
}